:03000000020D529C
:0C0D5200787FE4F6D8FD758146020D990B
:10106E003F065B4F666D7D077F6F777C395E7971CA
:10107E003D767430101E38545C73675031783E1CC8
:0B108E00404808006C696768743A0075
:10113C00C18002230000022600010428001ED818DA
:09114C00014001014601012100EE
:081156009296D2957F057E0000
:10115E00EF1FAC0670011E4C600500000080F122EE
:10116E00EF1FAC0670011E4C600D0000007D0B7C65
:07117E00BEDCFEDDFC80E990
:011185002247
:1011C7007580FFC2C2D2C100D2B70000E58020E718
:0411D700FBC2B7227E
:10119D00ED60031211C7C2C2C2C1008F8000D2B769
:0511AD000000C2B722A2
:1011DB001211C7D2C2C2C1008F8000D2B70000C2A9
:0211EB00B72229
:101121007D017F3812119D7F0812119D7F011211DF
:0B1131009D7F0612119D7F0C02119D96
:07109900F8E6FBE4FDAF08DF
:1010A000AE07AC0353050153060FED600343064042
:0F10B000430680AF06E4FD12119DAF040211DB71
:0D122C00D296121158C29612115AC2952284
:0E121000C296121158D2967F057E0002115E22
:0E121E00A201121156C2957F057E0002115EDC
:0C124600121158C2957F057E0002115E57
:02118600AD07B3
:10118800E4FBED25E0FD121156C29512115A0BBB76
:0511980008F002124600
:1010E500E4FDD296FBED25E0FD121158A296E433FE
:0D10F5004205C29512115A0BBB08EAAF0567
:0111020022CA
:1011ED00AA0712122C7F46121186AF021211860227
:0211FD001210CE
:1010140012122C7F47121186E4FA1210E574382A52
:10102400F8A607BA0104D2018002C20112121E0AF4
:0D103400BA02E71212107F057E0002116E55
:05125E007F010211ED0B
:1010BF00AB07EBFAEDFBE4FDC2C2EA30E704D2B7AF
:1010CF008002C2B7D2C2EB25E0FBEA33FA0DBD10A6
:0510DF00E7C2C1D2C10F
:0110E40022E9
:0C125200EF90106E93FFEDF4FD0210BF52
:080C86008E128F13AB05AA04C6
:100C8E007C037DE8120A678F2CAE12AF137C037DB6
:100C9E00E8120A677E007F64CFCDCFCECCCE120A8B
:100CAE00678F2DAE12AF137C007D64120A677E0033
:100CBE007F0ACFCDCFCECCCE120A678F2EAE12AF1B
:100CCE00137C007D0A120A678D2F7C037DE8AF032B
:100CDE00AE02120A678F307C037DE8AF03AE0212BC
:100CEE000A677E007F64CFCDCFCECCCE120A678F3F
:100CFE00317C007D64AF03AE02120A677E007F0A6C
:100D0E00CFCDCFCECCCE120A678F32AE02AF037CE0
:100D1E00007D0A120A678D33E4F9742C29F8E690E7
:100D2E00106E93FF7401A801088002C333D8FCF43F
:100D3E00FD1210BFC2C57F017E0012116ED2C50911
:030D4E00B908D70A
:010D5100227F
:1011FF007F08782C7423F608DFFC7DFFE4FF0210D4
:01120F00BF1F
:101103007F0A7E0012116E53B3D953B4D953B17F02
:0E11130053B27FC2B7C2C2C2C1C2C50211FF31
:0D12390053B1FB53B2FBD288D2A8D2AF2232
:03000300021041A7
:10104100C0E0C0D075D000C004C005C006C007E52F
:10105100B0600D7F027E0012116EE5B06002B20039
:0D106100D007D006D005D004D0D0D0E032AA
:100DDE00D3E53794A0E536940F507A7D80E4FF1268
:100DEE001252D3E5379498E53694084008752600DC
:100DFE007527018052D3E53794B0E5369404400848
:100E0E00752600752703803FD3E53794F4E53694B5
:100E1E00014008752600752704802CD3E537942CE5
:100E2E00E536940140087526007527068019D3E52E
:100E3E00379496E53694004008752600752708808D
:100E4E000675260075270AAE26AF277C017DF412A3
:060E5E000A5512115E228C
:1011B200538E7F5389F0E4F58A758CB8C28DD2A91B
:0511C200D2AFD28C2227
:03000B00020F5D84
:100F5D00C0E0C0F0C083C082C0D075D000C000C05A
:0B0F6D0002C003C004C005C006C0079E
:100F7800300011C2C5AFC07523008F24120DDE8565
:100F880024C0D2C5AF210521EFB43223752100E575
:100F9800408546F0A4FFAEF0E4FCFDE52B2FF52BD1
:0F0FA800E52A3EF52AED3529F529EC3528F528FF
:100FB700D007D006D005D004D003D002D000D0D0BF
:090FC700D082D083D0F0D0E032DA
:100E6400AB07AA067C277D10120A67EF2430F545EC
:100E74007C277D10AF03AE02120A67AA04AB057C7F
:100E8400037DE8AF03AE02120A67EF2430F5447C19
:100E9400037DE8AF03AE02120A67AA04AB057C0027
:100EA4007D64AF03AE02120A67EF2430F5437C0081
:100EB4007D64AF03AE02120A67AA04AB057C007D11
:100EC4000AAF03AE02120A67EF2430F5427C007DBC
:0E0ED4000AAF03AE02120A67ED2430F5412288
:100EE200E47B3CFAF9F8AF2BAE2AAD29AC28120FFD
:100EF200D0AF038F22E47B3CFAF9F8AF2BAE2AADD8
:100F020029AC28120FD0E47B3CFAF9F8120FD0AFCB
:100F1200038F25E47B107A0EF9F8AF2BAE2AAD29A8
:100F2200AC28120FD0E47B18FAF9F8120FD0AF03F5
:100F32008F35E47B107A0EF9F8AF2BAE2AAD29ACCF
:100F420028120FD0E47B18FAF9F8120FD0E47B1EB6
:0B0F5200FAF9F8120FD0AF038F342221
:100B9800780B7C007D007BFF7A1079927E007F07BE
:100BA800120A2F7F647E0012116E12125E1211213A
:100BB8001211031211B2121239200003020C4E7FD7
:100BC800011211ED7F101211ED7FB47E0012116E2B
:100BD80012101475090085380AE50AFE7C00E42520
:100BE80039F50AEC3EF509FCAD0AE41208A57B9A32
:100BF8007A997999783F1208031208DE8E368F3772
:100C0800120E64E4F508740B25081210990508E51E
:100C180008D3940540F0750806C3740A9508244162
:100C28001210990508E508D3940A40EDE50804FF79
:100C38007B4CE4FD1210A0E5082402FF7B58E4FD7C
:100C48001210A0020BC11211037D017F0112119D28
:100C5800300003020B98120EE2E53475F064A47CB0
:100C6800002535FBEC35F0FAE52575F064A425225E
:0E0C7800FDEC35F0FCAF03AE02120C8680D20C
:10080000020954EC5D046005E85904700302094ACA
:10081000120915580460F6EC4860F2EC7004FDFE15
:10082000FF22C860DB2481C85009C39860025006CB
:100830000209519850CAF582E9294B4A7005AB82EA
:1008400002094075F0007C1A7880C3EF9BEE9AEDA8
:1008500099400DC3EF9BFFEE9AFEED99FDE842F043
:10086000DC23ACF0D0E0FFD0E0FED0E0FDAB822096
:10087000E7101BEB60BAEC2CFCEF33FFEE33FEED20
:1008800033FD02092CE803F830E705C0F075F000ED
:10089000EF2FFFEE33FEED33FD40B830E7C280AA04
:1008A00075F020800E75F010800575F0087D007ED3
:1008B000007F003392D530D503120ABCEC334010D0
:1008C000EF33FFEE33FEED33FDEC33FCD5F0ED22DC
:0E08D000E5F0247EA2D513CC92E7CDCEFF2218
:1008DE00EDD2E7CD33EC3392D524814006E4FFFE12
:1008EE00FDFC22FCE4CFCECDCC24E0501174FF8071
:1008FE00EDC3CC13CCCD13CDCE13CECF13CF04700E
:07090E00F030D5DE020ABC47
:10091500E9D2E7C933E833F892D5EDD2E7CD33EC28
:0709250033FC5002B2D522A1
:10092C00EC30E7100FBF000C0EBE00080DBD00042C
:10093C000BEB6014A2D5EB13FCED92E7FD2274FFD8
:10094C00FCFDFEFF22E480F8A2D574FF13FC7D8031
:03095C00E480EF45
:100D5E00020B98E493A3F8E493A34003F68001F208
:100D6E0008DFF48029E493A3F85407240CC8C33396
:100D7E00C4540F4420C8834004F456800146F6DF65
:100D8E00E4800B010204081020408090113CE47EA8
:100D9E00019360BCA3FF543F30E509541FFEE4935A
:100DAE00A360010ECF54C025E060A840B8E493A321
:100DBE00FAE493A3F8E493A3C8C582C8CAC583CA4C
:100DCE00F0A3C8C582C8CAC583CADFE9DEE780BE04
:011155000099
:10095F00E709F608DFFA8046E709F208DFFA803E7A
:10096F0088828C83E709F0A3DFFA8032E309F60867
:10097F00DFFA8078E309F208DFFA807088828C83CF
:10098F00E309F0A3DFFA806489828A83E0A3F60883
:10099F00DFFA805889828A83E0A3F208DFFA804C5D
:1009AF0080D280FA80C680D4806980F28033801034
:1009BF0080A680EA809A80A880DA80E280CA80339D
:1009CF0089828A83ECFAE493A3C8C582C8CCC58315
:1009DF00CCF0A3C8C582C8CCC583CCDFE9DEE780E5
:1009EF000D89828A83E493A3F608DFF9ECFAA9F064
:1009FF00EDFB2289828A83ECFAE0A3C8C582C8CCBA
:100A0F00C583CCF0A3C8C582C8CCC583CCDFEADED2
:100A1F00E880DB89828A83E493A3F208DFF980CC34
:100A2F0088F0EF60010E4E60C388F0ED2402B4042D
:100A3F000050B9F582EB2402B4040050AF232345D4
:060A4F0082239009AF7341
:100A5500EF8DF0A4A8F0CF8CF0A428CE8DF0A42EB5
:020A6500FE226F
:100A6700BC000BBE0029EF8DF084FFADF022E4CC73
:100A7700F875F008EF2FFFEE33FEEC33FCEE9DEC3C
:100A8700984005FCEE9DFE0FD5F0E9E4CEFD22ED82
:100A9700F8F5F0EE8420D21CFEADF075F008EF2FCC
:100AA700FFED33FD4007985006D5F0F222C398FDBD
:050AB7000FD5F0EA225A
:100FD000C2D5E830E70FB2D5E4C39BFBE49AFAE44C
:100FE00099F9E498F8EC30E717B2D5121006120B15
:100FF00006E4C39BFBE49AFAE499F9E498F88003C9
:10100000120B0630D50DE4C39FFFE49EFEE49DFD68
:04101000E49CFC223E
:0E0ABC00C3E49FFFE49EFEE49DFDE49CFC224B
:100ACA0075F008758200EF2FFFEE33FECD33CDCCE3
:100ADA0033CCC58233C5829BED9AEC99E582984066
:100AEA000CF582EE9BFEED9AFDEC99FC0FD5F0D643
:100AFA00E4CEFBE4CDFAE4CCF9A88222B800C1B96D
:100B0A000059BA002DEC8BF084CFCECDFCE5F0CBAA
:100B1A00F97818EF2FFFEE33FEED33FDEC33FCEBE3
:100B2A0033FB10D703994004EB99FB0FD8E5E4F99E
:100B3A00FA227818EF2FFFEE33FEED33FDEC33FC8B
:100B4A00C933C910D7059BE99A4007EC9BFCE99A7F
:100B5A00F90FD8E0E4C9FAE4CCFB2275F010EF2FC4
:100B6A00FFEE33FEED33FDCC33CCC833C810D707C4
:100B7A009BEC9AE899400AED9BFDEC9AFCE899F8FF
:0E0B8A000FD5F0DAE4CDFBE4CCFAE4C8F92292
:00000001FF
